:020000040800F2
:1000000000800020F55B00082555000829550008F0
:100010002D55000831550008355500080000000036
:10002000000000000000000000000000395500083A
:100030003D550008000000004155000845550008E6
:10004000455C0008455C0008455C0008455C00080C
:10005000455C0008455C0008455C00084D550008FB
:10006000455C0008455C0008455C000859550008DF
:1000700069550008455C0008455C0008455C0008BF
:10008000455C000800000000455C0008455C000875
:1000900079550008455C0008455C0008455C00088F
:1000A000455C0008455C0008455C0008455C0008AC
:1000B00089550008455C0008455C0008455C00085F
:1000C000455C0008455C0008455C0008455C00088C
:1000D000455C0008455C0008455C0008455C00087C
:1000E000455C0008455C0008455C0008455C00086C
:1000F000455C0008455C0008455C00080000000005
:1001000000000000455C000800000000455C00089D
:10011000455C000800000000455C0008455C0008E4
:10012000455C0008455C0008455C0008455C00082B
:10013000455C00080000000000000000455C00086D
:10014000455C0008455C000800000000000000005D
:10015000000000000000000000000000000000009F
:10016000000000000000000000000000455C0008E6
:10017000455C0008000000000000000000000000D6
:1001800000000000455C00080000000000000000C6
:10019000000000000000000000000000000000005F
:1001A0000000000000000000455C0008455C0008FD
:1001B000455C0008455C0008455C00080000000044
:1001C00000000000455C0008000000000000000086
:0801D000455C0008455C0008D5
:1001D80010402DE928409FE50030D4E5000053E3A6
:1001E8000500001A1C309FE5000053E318009F1516
:1001F8000000A0110130A0E30030C4E51040BDE8C4
:100208001EFF2FE18001002000000000E85C0008CC
:100218003C309FE5000053E310402DE934109F1552
:1002280034009F150000A01130009FE5003090E5D4
:10023800000053E30100001A1040BDE81EFF2FE143
:100248001C309FE5000053E3FAFFFF0A1040BDE8A9
:1002580013FF2FE10000000084010020E85C000883
:100268008001002000000000000053E3000052035A
:100278000400001A000051E3000050030010E013CE
:100288000000E013510000EA08D04DE200602DE9BB
:10029800030000EB04E09DE508D08DE20C00BDE80A
:1002A8001EFF2FE1030051E1F84F2DE90200500134
:1002B8000040A0E10150A0E128A09DE50000A03386
:1002C8000010A0333D00003A0310A0E10200A0E1B5
:1002D8000280A0E10390A0E13D0000EB0510A0E141
:1002E80000B0A0E10400A0E1390000EB0B3060E0B1
:1002F800202043E21973A0E1187287E120C063E26D
:10030800387C87E1070055E11863A0E10600540135
:100318000000A0330010A0330500003A01E0A0E37C
:10032800064054E01E12A0E13E1C81E10750C5E0E2
:100338001E03A0E1000053E32000000AA770B0E10B
:100348006660A0E103E0A0E1070000EA064054E08F
:100358000750C5E0044094E00550A5E0014094E250
:100368000050A5E201E05EE20600000A070055E140
:1003780006005401F4FFFF2A044094E00550A5E06C
:1003880001E05EE2F8FFFF1A34E3A0E115EC8EE12C
:1003980035E28EE1046090E00E40A0E10570A1E036
:1003A8003513A0E10150A0E11113A0E11E1281E173
:1003B8001E03A0E13E1C81E1000056E00110C7E0E9
:1003C80000005AE330008A18F84FBDE81EFF2FE1FD
:1003D8001EFF2FE110402DE9000051E30200001A32
:1003E800050000EB200080E2010000EA0100A0E126
:1003F800010000EB1040BDE81EFF2FE11C10A0E338
:10040800010850E32008A02110104122010C50E3FC
:100418002004A02108104122100050E32002A0214E
:100428000410412208208FE20000D2E7010080E09A
:100438001EFF2FE104030202010101010000000078
:1004480000000000F0B583B00023BBE001249C400D
:10045800224000F0B6804D68022D01D0122D10D137
:10046800DE08083650F826C003F00705AF000F2550
:10047800BD402CEA050E0D69BD404EEA050540F861
:10048800265005685F000326BE40F64305EA060EBF
:100498004D6805F00305BD404EEA050505604D6849
:1004A80005F1FF3EBEF1010F03D9112D01D0122D28
:1004B80010D1856806EA050ECD68BD404EEA0505EF
:1004C8008560456825EA04044D68C5F300159D401C
:1004D80025434560C46826408C68BC403443C460EA
:1004E8004C6814F0805F6CD03A4C256E45F00105DD
:1004F8002566246E04F001040194019C9E08B51C35
:10050800354C54F8255003F00304A4000F27A740E6
:1005180025EA0707B0F1904F14D0304DA84213D008
:1005280005F58065A84211D005F58065A8420FD071
:1005380005F58065A8420DD005F58065A8420BD168
:1005480005250AE0002508E0012506E0022504E06B
:10055800032502E0042500E0062505FA04F43C43DF
:1005680002361D4D45F826401D4C2568D44305EA42
:1005780004064F6817F4803F01D042EA0506184D7B
:100588002E606D6804EA05064F6817F4003F01D035
:1005980042EA0506124D6E60AD6804EA05064F682A
:1005A80017F4801F01D042EA05060D4DAE60ED68D4
:1005B8002C404E6816F4001F01D042EA0504084A90
:1005C800D46001330A6832FA03F47FF43FAF03B012
:1005D800F0BD00BF001002400000014000040048C8
:1005E800000401400AB1816170478162704700BF11
:1005F800704700BF08B5044B5B69034203D0024B48
:100608005861FFF7F5FF08BD0004014000285BD0E2
:10061800F0B587B0044690F8293213F0FF0F04D1E3
:10062800002380F8283205F0EDF8032384F82932F6
:10063800206800F073FC002311E004EB4312012151
:1006480082F8291082F82830D386002182F82B10EE
:100658009163D1639A1C5201A1500133DBB26068E7
:100668008342EAD3002312E004EB4311002281F80D
:10067800292181F8283181F82B21C1F83821C1F8C6
:100688003C2103F10A01490162500133DBB298426F
:10069800EAD8254655F8107B6E460FCD0FC62B6855
:1006A8003360231D0ECB384600F042FC002384F84B
:1006B8002430012384F82932E369012B06D120462E
:1006C80000F00AFC002002E001207047002007B07B
:1006D800F0BD00BF90F82832012B0ED010B50446AB
:1006E800012380F82832006800F06EFF206800F0CF
:1006F80009FC002084F8280210BD0220704700BFC2
:1007080090F82832012B0DD010B50446012380F84B
:10071800283280F82410006800F050FF002084F888
:10072800280210BD0220704770B511F0800F0AD062
:1007380001F007056D0105F128040444054401266C
:1007480085F8296009E001F007056D0105F5947445
:1007580004440544002685F8296101F00701217049
:100768002261E370627802B1E181022B01D100239A
:10077800237190F82832012B0BD00546012380F80D
:1007880028322146006800F0E9FB002085F828029D
:1007980070BD022070BD00BF10B511F0800F0AD0E7
:1007A80001F007035B0103F128020244034401241A
:1007B80083F8294009E001F007035B0103F594720F
:1007C80002440344002483F8294101F0070313700D
:1007D80090F82832012B0BD00446012380F82832E8
:1007E8001146006800F080FD002084F8280210BD42
:1007F800022010BD70B501F007056C0104F5947175
:1008080001440444C4F83C2105F10A025201861847
:1008180083500023736084F8293184F828511DB966
:10082800006800F0F7FE02E0006800F0F3FE002028
:1008380070BD00BF01F007010A3100EB41104068AC
:10084800704700BF70B501F007056C0104F128017D
:1008580001440444E263AA1C520186188350002311
:100868007360012384F8293084F828501DB9006882
:1008780000F0D0FE02E0006800F0CCFE002070BD61
:10088800F8B50446A9E1B0F844309BB213F00F065E
:1008980040F0D18003F010039BB2002B35D10388C0
:1008A8009BB223F4E14323F070036FEA43436FEAFA
:1008B80053439BB203802168B1F850309AB294F840
:1008C800283002EBC3030B44B3F80234C3F3090323
:1008D8006364E26B1344E3630021204604F0C4FF21
:1008E80094F8243013F0FF0F00F07781236C002B6D
:1008F80040F07381226894F8243043F08003A2F812
:100908004C30002384F8243067E103889BB203F459
:10091800006292B202B3B0F850309BB294F828212A
:1009280003EBC2030344B3F80634C3F30903C4F862
:100938004431B4F82E2104F50C7101F01FF8226837
:10094800138823F070031B051B0D43F080031380ED
:10095800204604F077FF40E113F4004F00F03D819A
:10096800038823F070031B051B0D43F080030380ED
:100978002068B0F850309BB294F8282103EBC203EA
:100988000344B3F80634C3F30903C4F844318BB104
:10099800D4F83C1171B1B4F82E2100F0EFFFD4F86F
:1009A8003C21D4F844311344C4F83C31002120469A
:1009B80004F050FF2268B2F850309BB21344D4F8C8
:1009C80038218AB9B3F8062492B222F4F84292B2D6
:1009D800A3F80624B3F806246FEA42426FEA5242AB
:1009E80092B2A3F8062417E03E2A09D8510812F05B
:1009F800010F00D001318A0292B2A3F806240BE05D
:100A0800510912F01F0F00D101396FEAC1626FEA74
:100A1800524292B2A3F80624226813889BB223F4A8
:100A2800804323F0700383F4405343F4004343F0BE
:100A380080031380D1E030F82650ADB215F4004F92
:100A480000F0938030F8263023F070031B051B0D4F
:100A580043F0800320F8263004EB461393F8343132
:100A6800D3B92068B0F850309BB204EB461292F824
:100A7800282103EBC2030344B3F80674C7F309073C
:100A8800002F4FD004EB46113B46B1F82E21D1F888
:100A98003C1100F073FF45E0206804EB461393F81F
:100AA800281130F8213003F480439BB2A3B1B0F889
:100AB800502092B202EBC1030344B3F80274C7F3A7
:100AC8000907EFB104EB46113B46B1F83021D1F8E4
:100AD8003C1100F053FF13E0B0F850309BB203EB29
:100AE800C1030344B3F80674C7F3090747B104EB1D
:100AF80046113B46B1F83221D1F83C1100F03EFFD7
:100B0800226804EB461393F8281132F821309BB27F
:100B180023F4E04323F0700343F4004343F0C0039D
:100B280022F8213006F10A035B01E1184A683A44C9
:100B38004A6004EB4611D1F83C213A44C1F83C2103
:100B4800E3581BB1D1F838118F4207D204EB461392
:100B580093F82811204604F07DFE06E004EB4611C8
:100B680091F828112046FFF745FE05F08005ADB243
:100B78009DB3226832F826309BB223F4E14323F078
:100B880070036FEA43436FEA53439BB222F826305F
:100B98002168B1F850309AB204EB461090F828302A
:100BA80002EBC3030B44B3F80234C3F30903B11CCB
:100BB800490162185360C26B1A44C26363582BB967
:100BC80090F82810204604F04FFE06E004EB46118A
:100BD80091F828102046FFF735FE2068B0F8443019
:100BE80013F4004F7FF44FAE0020F8BD10B5044653
:100BF800006800F0F5FC10F4004F02D02046FFF723
:100C08003FFE206800F0ECFC10F4806F0FD02268E3
:100C1800B2F844309BB223F480639BB2A2F844300C
:100C2800204604F031FE00212046FFF769FD2068C8
:100C380000F0D6FC10F4804F08D02268B2F8443097
:100C48009BB223F480439BB2A2F84430206800F0A2
:100C5800C7FC10F4005F08D02268B2F844309BB299
:100C680023F400539BB2A2F84430206800F0B8FC8B
:100C780010F4805F27D02268B2F840309BB223F08E
:100C880004039BB2A2F840302268B2F840309BB20D
:100C980023F008039BB2A2F8403094F86032012B8D
:100CA80005D1002184F86012204604F0C3FE2046D6
:100CB80004F00CFE2268B2F844309BB223F480534F
:100CC8009BB2A2F84430206800F08AFC10F4006F50
:100CD80021D02268B2F840309BB243F00803A2F852
:100CE80040302268B2F844309BB223F400639BB2D0
:100CF800A2F844302268B2F840309BB243F00403B3
:100D0800A2F84030206800F06BFC10F4805F02D13C
:100D1800204604F0CBFD206800F062FC10F0800F44
:100D28002DD02268B2F844309BB223F080039BB2E6
:100D3800A2F8443094F86032F3B92268B2F840302F
:100D48009BB243F00403A2F840302268B2F8403066
:100D58009BB243F00803A2F84030012184F86012E6
:100D68002368B3F8543003F0F0039B08C4F86432E6
:100D7800204604F05FFE02E0204604F097FD20685C
:100D880000F02EFC10F4007F0BD02268B2F844303B
:100D98009BB223F400739BB2A2F84430204604F0BF
:100DA8006DFD206800F01CFC10F4807F08D02268DC
:100DB800B2F844309BB223F480739BB2A2F844305B
:100DC80010BD00BF38B501F0070543689D422BD818
:100DD80011F0800F08D06B0103F12801014403448E
:100DE800012283F8292007E04B0103F5947101449F
:100DF8000344002283F8292101238B700D7090F899
:100E08002832012B12D00446012380F828320068CA
:100E180000F05AFB25B904F50C71206800F0E4FBDA
:100E2800002084F8280238BD012038BD022038BDD2
:100E380001F00F0243689A422DD810B511F0800FC7
:100E48000AD001F007035B0103F1280202440344BE
:100E5800012483F8294009E001F007035B0103F549
:100E6800947202440344002483F8294100239370B8
:100E780001F00703137090F82832012B0DD00446B7
:100E8800012380F828321146006800F043FB002057
:100E980084F8280210BD01207047022010BD00BF51
:100EA80010B401F08004A4B22CB101F0070149018B
:100EB8002831014403E0490101F59471014412B954
:100EC8000A73CB8004E001220A730B811B0C4B814F
:100ED800002010BC704700BF034602680121C0F81B
:100EE8006812002083F86002B2F854309BB20B43BA
:100EF800A2F85430B2F854309BB243F00203A2F87F
:100F080054307047B0F840309BB243F43F4343F04D
:100F18008003A0F840300020704700BFB0F8403090
:100F280023F47E535B045B0CA0F84030002070472C
:100F380084B038B505AC84E80E000123A0F8403031
:100F48000024A0F84040A0F84440A0F85040FFF723
:100F5800D9FF2046BDE8384004B0704730B4034696
:100F68000D7830F8252092B222F4EC4222F070027B
:100F780092B2C878032803D8DFE800F0040C100800
:100F880001200CE042F40072002008E042F4C06244
:100F9800002004E042F48062002000E0002048F2D3
:100FA8008004224323F825200D7833F8252092B2B7
:100FB80022F4E04222F070022A43224323F825203B
:100FC8000A7B002A40F0AC804A78002A43D0B3F864
:100FD800502092B21A440C7802EBC402CC8824F058
:100FE8000104A4B2A2F800440C7833F8242002F0DB
:100FF800400292B262B133F8242092B222F4E04265
:1010080022F0700242F4004242F0C00223F8242089
:10101800CA78012A10D0097833F8212092B222F434
:10102800E04222F0400282F0200242F4004242F004
:10103800800223F8212055E1097833F8212092B263
:1010480022F4E04222F0400242F4004242F08002E0
:1010580023F8212046E1B3F8502092B21A440C78C4
:1010680002EBC402CC8824F00104A4B2A2F8044420
:10107800B3F8502092B21A440C7802EBC4020C69FF
:101088008CB9B2F80644A4B224F4F844A4B2A2F885
:101098000644B2F806446FEA44446FEA5444A4B2E2
:1010A800A2F8064417E03E2C09D8650814F0010F91
:1010B80000D00135AD02ADB2A2F806540BE06509C7
:1010C80014F01F0F00D1013D6FEAC5646FEA544464
:1010D800A4B2A2F806440C7833F8242002F4804223
:1010E80092B262B133F8242092B222F4E04222F0A4
:1010F800700242F4404242F0800223F8242009782A
:1011080033F8212092B222F4804222F0700282F455
:10111800405242F4004242F0800223F82120E1E0EC
:101128000C7833F8242092B222F4E04222F07002C4
:1011380042F4014242F0800223F82420B3F8502000
:1011480092B21A440C7802EBC4020C8924F0010410
:10115800A4B2A2F80044B3F8502092B21A440C7812
:1011680002EBC4024C8924F00104A4B2A2F804449E
:101178004A78002A50D10C7833F8242002F48042AF
:1011880092B262B133F8242092B222F4E04222F003
:10119800700242F4404242F0800223F824200C7886
:1011A80033F8242002F0400292B262B133F82420CE
:1011B80092B222F4E04222F0700242F4004242F07D
:1011C800C00223F824200C7833F8242092B222F4A9
:1011D800E04222F0700242F4004242F0C00223F8DA
:1011E80024200D7833F8252092B222F4804222F090
:1011F800700282F4405248F28004224323F82520EA
:10120800097833F8212092B222F4E04222F0400219
:10121800224323F8212065E00C7833F8242002F4D7
:10122800804292B262B133F8242092B222F4E042B2
:1012380022F0700242F4404242F0800223F8242057
:101248000C7833F8242002F0400292B262B133F8ED
:10125800242092B222F4E04222F0700242F40042CA
:1012680042F0C00223F824200C7833F8242092B2EC
:1012780022F4E04222F0700242F4404242F080023E
:1012880023F82420CA78012A10D00C7833F82420B7
:1012980092B222F4E04222F0400282F0200242F4AC
:1012A800004242F0800223F824200DE00C7833F845
:1012B800242092B222F4E04222F0400242F400429A
:1012C80042F0800223F82420097833F8212092B2D2
:1012D80022F4804222F0700242F4004242F080027E
:1012E80023F8212030BC70470B7B002B48D14B786A
:1012F8001BB30A7830F8223003F040039BB263B185
:1013080030F822309BB223F4E04323F0700343F417
:10131800004343F0C00320F822300A7830F8223026
:101328009BB223F4E04323F0400343F4004343F02B
:10133800800320F82230002070470A7830F82230E5
:1013480003F480439BB263B130F822309BB223F49C
:10135800E04323F0700343F4404343F0800320F854
:1013680022300A7830F822309BB223F4804323F0ED
:10137800700343F4004343F0800320F82230DAE797
:1013880010B44B78002B4ED10A7830F8223003F491
:1013980080439BB263B130F822309BB223F4E04320
:1013A80023F0700343F4404343F0800320F82230D5
:1013B8000A7830F8223003F040039BB263B130F86A
:1013C80022309BB223F4E04323F0700343F400433C
:1013D80043F0C00320F822300A7830F822309BB25C
:1013E80023F4E04323F0700343F4004343F0C003C5
:1013F80020F822300C7830F824309BB223F4804354
:1014080023F0700348F28002134320F8243009784F
:1014180030F821309BB223F4E04323F04003134318
:1014280020F821304DE00A7830F8223003F4804368
:101438009BB263B130F822309BB223F4E04323F02F
:10144800700343F4404343F0800320F822300A78C5
:1014580030F8223003F040039BB263B130F82230F9
:101468009BB223F4E04323F0700343F4004343F0BA
:10147800C00320F822300A7830F822309BB223F4D7
:10148800E04323F0700343F4404343F0800320F823
:1014980022300C7830F824309BB223F4E04323F058
:1014A800400348F28002134320F82430097830F8CA
:1014B80021309BB223F4804323F07003134320F8B8
:1014C8002130002010BC70474B7883B10A7830F87F
:1014D80022309BB223F4E04323F0400383F010034F
:1014E80043F4004343F0800320F822300FE00A78E9
:1014F80030F822309BB223F4804323F0700383F446
:10150800805343F4004343F0800320F82230002046
:10151800704700BF0B7B002B4DD14B783BB30A784B
:1015280030F8223003F040039BB263B130F8223028
:101538009BB223F4E04323F0700343F4004343F0E9
:10154800C00320F82230CB78012B34D00A7830F849
:1015580022309BB223F4E04323F0400383F02003BE
:1015680043F4004343F0800320F8223023E00A7854
:1015780030F8223003F480439BB263B130F8223054
:101588009BB223F4E04323F0700343F4404343F059
:10159800800320F822300A7830F822309BB223F4F6
:1015A800804323F0700383F4405343F4004343F033
:1015B800800320F822300020704700BF11B9802333
:1015C800A0F84C3000207047B0F858306FEA434319
:1015D8006FEA53439BB2A0F858300020704700BF11
:1015E800B0F8440080B270470020704710B401334F
:1015F8005B08024402F5806207E00C78487844EA08
:10160800002422F8024B0231013B002BF5D110BC1B
:10161800704700BF70B54A78012A40F0DC808B69BA
:101628000C69A34203D91B1B8B61234601E00024EC
:101638008C610D460446097B79B99EB23346EA8827
:101648006969FFF7D3FFB4F850309BB223442A7876
:1016580003EBC203A3F80264ACE0287834F8201046
:1016680001F0400189B200293FD08ABBB4F850206C
:1016780092B2224402EBC0008BB9B0F8062492B2B1
:1016880022F4F84292B2A0F80624B0F806246FEAD1
:1016980042426FEA524292B2A0F8062423E03E2B5F
:1016A80009D85A0813F0010F00D00132920292B201
:1016B800A0F8062417E05A0913F01F0F00D1013AC9
:1016C8006FEAC2626FEA524292B2A0F806240AE0B8
:1016D800012A08D1B4F8502092B2224402EBC0008B
:1016E8009AB2A0F806246A893EE08ABBB4F8502072
:1016F80092B2224402EBC0008BB9B0F8022492B235
:1017080022F4F84292B2A0F80224B0F802246FEA58
:1017180042426FEA524292B2A0F8022423E03E2BE2
:1017280009D85A0813F0010F00D00132920292B280
:10173800A0F8022417E05A0913F01F0F00D1013A4C
:101748006FEAC2626FEA524292B2A0F802240AE03B
:10175800012A08D1B4F8502092B2224402EBC0000A
:101768009AB2A0F802242A899BB269692046FFF739
:101778003DFF6B7873B92A7834F822309BB223F492
:10178800E04323F0700343F4004343F0C00324F81C
:1017980022300FE0012B0DD12A7834F822309BB289
:1017A80023F4E04323F0700343F4404343F0800301
:1017B80024F822302A7834F822309BB223F4E0430C
:1017C80023F0400383F0300343F4004343F08003E5
:1017D80024F82230CFE08B690C69A34203D91B1B84
:1017E8008B61234601E000248C610C7B94BBB0F82C
:1017F800502092B202440C7802EBC4028BB9B2F8C2
:1018080006349BB223F4F8439BB2A2F80634B2F82C
:1018180006346FEA43436FEA53439BB2A2F8063497
:1018280099E03E2B09D85C0813F0010F00D0013471
:10183800A402A4B2A2F806448DE05C0913F01F0FBD
:1018480000D1013C6FEAC4646FEA5444A4B2A2F820
:10185800064480E092BBB0F8502092B202440C7863
:1018680002EBC4028BB9B2F80244A4B224F4F844DF
:10187800A4B2A2F80244B2F802446FEA44446FEA00
:101888005444A4B2A2F8024424E03E2B09D85C08D0
:1018980013F0010F00D00134A402A4B2A2F802444C
:1018A80018E05C0913F01F0F00D1013C6FEAC46413
:1018B8006FEA5444A4B2A2F802440BE0012A09D109
:1018C800B0F8502092B202440C7802EBC4029CB2E9
:1018D800A2F802444A7892BBB0F8502092B202446F
:1018E8000C7802EBC4028BB9B2F806349BB223F42D
:1018F800F8439BB2A2F80634B2F806346FEA4343C1
:101908006FEA53439BB2A2F8063424E03E2B09D871
:101918005C0813F0010F00D00134A402A4B2A2F8AD
:10192800064418E05C0913F01F0F00D1013C6FEA70
:10193800C4636FEA53439BB2A2F806340BE0012A52
:1019480009D1B0F8502092B202440C7802EBC402DC
:101958009BB2A2F806340A7830F822309BB223F4FE
:10196800804323F0700383F4405343F4004343F06F
:10197800800320F82230002070BD00BF30B45D081D
:10198800024402F5806207E032F8024BA4B20C7000
:10199800240A4C700231013D002DF5D113F0010FDE
:1019A80001D013880B7030BC704700BF104B1B6808
:1019B800C3B110B504464FF47A70B0FBF3F30D4A87
:1019C8001068B0FBF3F000F0B5FF68B90F2C0DD824
:1019D800002221464FF0FF3000F06CFF064B1C60E0
:1019E800002010BD01207047012010BD012010BD4E
:1019F80004000020180100200000002008B5032082
:101A080000F046FF0020FFF7D1FF18B903F0C0FD32
:101A1800002008BD012008BD034A1168034B1B685C
:101A28000B441360704700BFC0030020040000206F
:101A3800014B1868704700BFC0030020124BDA68DA
:101A480002F00302DB68C3F303130133032A09D14D
:101A58000E48B0FBF3F00C4BDB68C3F3062303FB23
:101A680000F008E00A48B0FBF3F0074BDB68C3F36B
:101A7800062303FB00F0044BDB68C3F34163013327
:101A88005B00B0FBF3F070470010024000366E01B7
:101A98000024F400002800F0568270B582B0044695
:101AA800036813F0010F59D0AF4A936803F00C0391
:101AB800D26802F003020C2B01D1032A01D0082BB3
:101AC80008D1A94B1B6813F4003F47D06368002B6B
:101AD80044D13AE26368B3F5803F05D1A24A13685E
:101AE80043F48033136018E0B3F5A02F0CD103F151
:101AF8008043A3F53C331A6842F480221A601A68BE
:101B080042F480321A6008E0974B1A6822F4803257
:101B18001A601A6822F480221A6063687BB1FFF7A2
:101B280087FF054605E0FFF783FF401B642800F2A6
:101B38000E828D4B1B6813F4003FF4D00EE0FFF7C4
:101B480077FF054605E0FFF773FF401B642800F2A6
:101B58000082854B1B6813F4003FF4D1236813F00F
:101B6800020F57D0804A936803F00C03D26802F042
:101B780003020C2B01D1022A01D0042B17D17A4B76
:101B88001B6813F4806F03D0E368002B00F0E38137
:101B9800754A536823F0FE43216943EA01635360A1
:101BA800724B1868FFF702FF002833D0D5E1E368CD
:101BB800E3B16D4A136843F480731360FFF738FF8D
:101BC800054605E0FFF734FF401B022800F2C781F5
:101BD800654B1B6813F4806FF4D0634A536823F095
:101BE800FE43216943EA0163536013E05E4A1368C8
:101BF80023F480731360FFF71BFF054605E0FFF72A
:101C080017FF401B022800F2AC81574B1B6813F4E6
:101C1800806FF4D1236813F0080F30D06369BBB12B
:101C2800514AD2F8943043F00103C2F89430FFF7D8
:101C3800FFFE054605E0FFF7FBFE401B022800F209
:101C48009281494BD3F8943013F0020FF3D016E089
:101C5800454AD2F8943023F00103C2F89430FFF7D4
:101C6800E7FE054605E0FFF7E3FE401B022800F209
:101C78007C813D4BD3F8943013F0020FF3D12368E5
:101C880013F0040F00F08A80374B9B6D13F0805FD0
:101C980001D1012300E000235BB1334B9A6D42F080
:101CA80080529A659B6D03F080530193019B012537
:101CB80000E000252E4B1B6813F4807F13D12C4ABB
:101CC800136843F480731360FFF7B2FE064605E01D
:101CD800FFF7AEFE801B022800F24981244B1B68E7
:101CE80013F4807FF4D0A368012B07D11E4AD2F8E1
:101CF800903043F00103C2F890301CE0052B0DD161
:101D0800194BD3F8902042F00402C3F89020D3F87E
:101D1800902042F00102C3F890200CE0124BD3F857
:101D2800902022F00102C3F89020D3F8902022F0EE
:101D38000402C3F89020A36893B1FFF779FE064622
:101D480007E0FFF775FE801B41F28833984200F2E6
:101D58001081054BD3F8903013F0020FF1D017E043
:101D6800FFF766FE06460DE0001002400000002066
:101D780000700040FFF75CFE801B41F288339842F8
:101D880000F2F9808A4BD3F8903013F0020FF1D1AA
:101D980025B1874A936D23F080539365236813F028
:101DA800200F30D0A369BBB1814AD2F8983043F0F4
:101DB8000103C2F89830FFF73BFE054605E0FFF740
:101DC80037FE401B022800F2D880794BD3F89830B0
:101DD80013F0020FF3D016E0754AD2F8983023F0CA
:101DE8000103C2F89830FFF723FE054605E0FFF728
:101DF8001FFE401B022800F2C2806D4BD3F89830BA
:101E080013F0020FF3D1E369002B00F0BA80684A9F
:101E1800926802F00C020C2A67D0022B46D1644A61
:101E2800136823F080731360FFF702FE054605E090
:101E3800FFF7FEFD401B022800F2A5805C4B1B68E3
:101E480013F0007FF4D15A49CB685A4D1D40236ADC
:101E5800626A013A43EA0213A26A43EA0222206B49
:101E68004008013842EA4052606B4008431E42EA8B
:101E78004362E36A42EAC3632B43CB600B6843F0D7
:101E880080730B60CB6843F08073CB60FFF7D0FDA5
:101E9800044604E0FFF7CCFD001B022875D8444B2C
:101EA8001B6813F0007FF5D000207FE0404B1A68D4
:101EB80022F080721A60DA6822F00302DA60DA68C7
:101EC80022F0887222F48032DA60FFF7B1FD04460E
:101ED80004E0FFF7ADFD001B022858D8344B1B68FF
:101EE80013F0007FF5D1002060E0012B51D0304B7A
:101EF800DB6803F00301226A91424CD103F0F0023F
:101F0800616A0139B2EB011F47D103F4FE42A16AAD
:101F1800B2EB012F43D103F07842E16AB2EBC16F13
:101F28003FD103F4C001226B5208013AB1EB425F82
:101F380039D103F0C063626B5208013AB3EB426FC8
:101F480033D0012032E00120704701202EE0032029
:101F58002CE003202AE0012028E0012026E00320CD
:101F680024E0032022E0032020E003201EE00320D9
:101F78001CE003201AE0032018E0032016E00320E9
:101F880014E0002012E0032010E003200EE00320FC
:101F98000CE001200AE0012008E0012006E0012011
:101FA80004E0012002E0012000E0002002B070BD42
:101FB800001002400C809F011E4B9B6803F00C032D
:101FC800042B31D01B4B9B6803F00C03082B2DD03E
:101FD800184B9B6803F00C030C2B29D1154BDA68BE
:101FE80002F00302DB68C3F303130133032A09D1A8
:101FF8001148B0FBF3F00F4BDB68C3F3062303FB78
:1020080000F308E00D48B0FBF3F00A4BDB68C3F3BC
:10201800062303FB00F3074AD068C0F34160013090
:102028004000B3FBF0F0704704487047024870471F
:10203800002070470010024000366E010024F400B2
:10204800002800F0E580F8B50446784B1B6803F0DB
:102058000F038B420BD2754A136823F00F030B430F
:102068001360136803F00F03994240F0D3800D46C4
:10207800236813F0010F5FD06368032B1ED16C4BEC
:102088001B6813F0007F00F0C780FFF7D7FC694B8F
:1020980098422FD9664B9B6813F0F00F05D0236840
:1020A80013F0020F28D0A36843BB614A936823F05A
:1020B800F00343F080039360802722E0022B05D1D0
:1020C8005B4B1B6813F4003F06D1A7E0584B1B6815
:1020D80013F4806F00F0A480FFF76EFF554B984211
:1020E8000ED9534A936823F0F00343F080039360BA
:1020F800802706E0002704E0002702E0002700E030
:1021080000274B498B6823F00302636813438B60F5
:10211800FFF78EFC064606E0FFF78AFC801B41F2BB
:10212800883398427ED8424B9B6803F00C03626860
:10213800B3EB820FF0D100E00027236813F0020F01
:102148001AD013F0040F04D0394A936843F4E063BB
:102158009360236813F0080F06D0354A936823F478
:102168007C5343F4E063936031498B6823F0F002B9
:10217800A36813438B6005E027B12D4A936823F0C9
:10218800F0039360294B1B6803F00F039D4216D29E
:10219800264A136823F00F032B431360FFF748FC0C
:1021A800064606E0FFF744FC801B41F2883398425C
:1021B8003AD81E4B1B6803F00F039D42F2D12368E7
:1021C80013F0040F06D01A498B6823F4E062E36821
:1021D80013438B60236813F0080F07D0144A9368E1
:1021E80023F46053216943EAC1039360FFF7E4FED7
:1021F8000F4B9B68C3F303130F4AD35C03F01F0311
:10220800D8400E4B18600E4B1868FFF7CFFBF8BD8F
:10221800012070470120F8BD0120F8BD0120F8BD5C
:102228000120F8BD0320F8BD0320F8BD00200240BE
:102238000010024000B4C404285D00081801002002
:1022480000000020014B1868704700BF18010020EB
:1022580008B5FFF7F7FF054B9B68C3F30223044A51
:10226800D35C03F01F03D84008BD00BF0010024034
:10227800385D000808B5FFF7E5FF054B9B68C3F319
:10228800C223044AD35C03F01F03D84008BD00BF33
:1022980000100240385D0008F0B583B004460368BA
:1022A80013F4002F6CD0B24B9B6D13F0805F0BD1F1
:1022B800AF4B9A6D42F080529A659B6D03F0805344
:1022C8000193019B012600E00026AA4A136843F403
:1022D80080731360FFF7ACFB054604E0FFF7A8FB2B
:1022E800401B022806D8A34B1B6813F4807FF5D047
:1022F800002500E00325002D3BD19D4BD3F89030FD
:1023080013F4407315D0226C934212D0984AD2F835
:10231800903023F44073D2F8901041F48031C2F821
:102328009010D2F8901021F48031C2F89010C2F8C1
:10233800903013F0010F12D0FFF77AFB074606E042
:10234800FFF776FBC01B41F28833984206D8884BCA
:10235800D3F8903013F0020FF2D000E0032545B90E
:102368008349D1F8903023F44072236C1343C1F8A9
:10237800903036B17E4A936D23F08053936500E028
:102388000025236813F0010F08D07949D1F8883067
:1023980023F0030263681343C1F88830236813F0FD
:1023A800020F08D07249D1F8883023F00C02A368D4
:1023B8001343C1F88830236813F0040F08D06C4920
:1023C800D1F8883023F03002E3681343C1F888302D
:1023D800236813F0080F08D06549D1F8883023F036
:1023E800C00223691343C1F88830236813F0200F13
:1023F80008D05F49D1F8883023F4406263691343F9
:10240800C1F88830236813F0400F08D05849D1F834
:10241800883023F44052A3691343C1F888302368F5
:1024280013F0800F08D05249D1F8883023F4404285
:10243800E3691343C1F88830236813F4807F08D018
:102448004B49D1F8883023F44032236A1343C1F84A
:102458008830236813F4007F08D04549D1F88830C4
:1024680023F44022636A1343C1F88830236813F4C5
:10247800806F10D03E49D1F8883023F44012A36A07
:102488001343C1F88830A36AB3F5801F03D1CB6822
:1024980043F48013CB60236813F4006F10D03449E1
:1024A800D1F8883023F44002E36A1343C1F8883036
:1024B800E36AB3F5800F03D1CB6843F48013CB6094
:1024C800236813F4805F10D02949D1F8883023F0AD
:1024D8004072236B1343C1F88830236BB3F1807FBC
:1024E80003D1CB6843F48013CB60236813F4005FF7
:1024F80010D01F49D1F8883023F04062636B134332
:10250800C1F88830636BB3F1006F03D1CB6843F433
:102518008013CB60236813F4804F10D01449D1F88E
:10252800883023F04062A36B1343C1F88830A36B53
:10253800B3F1006F03D1CB6843F48013CB602368F9
:1025480013F4004F10D00A49D1F8883023F04052D4
:10255800E36B1343C1F88830E36BB3F1805F03D1B9
:10256800CB6843F48033CB60284603B0F0BD00BF8E
:10257800001002400070004003680C4A934201D8E2
:102588000B4900E00B49DBB2083B0B4AA2FB0323D3
:10259800426C22F003020A448264084AC264C3F30C
:1025A8000413012202FA03F303657047070402408B
:1025B8000008024020080240CDCCCCCC8008024064
:1025C8000379074A1A4492004265064A8265013B2C
:1025D80003F01F03012202FA03F3C365704700BF2B
:1025E8003F8200104009024000285BD010B5044625
:1025F80002682D4B9A420AD82C4B13442C4AA2FB52
:1026080003231B099B0043642A4B036409E02A4BFC
:102618001344274AA2FB03231B099B004364274B4F
:102628000364022384F825302068036823F4FF42FA
:1026380022F07002A168E3681943236919436369AA
:102648001943A3691943E3691943236A0B431343E5
:1026580003602046FFF790FFA368B3F5804F01D1D0
:1026680000236360A36C22791A60E36C226D5A60C0
:102678006368013B032B09D82046FFF7A1FF636D70
:1026880000221A60A36DE26D5A6003E000236365BF
:10269800A365E3650020E063012384F8253084F80E
:1026A800240010BD0120704707040240F8FFFDBF59
:1026B800CDCCCCCC00000240F8FBFDBF00040240AA
:1026C80038B5036C196804682568436C03F01F0368
:1026D80004229A40114216D015F0040F13D0236833
:1026E80013F0200F03D1236823F004032360016C47
:1026F800436C03F01F02042393404B60036B002BD1
:102708003ED0984738BD02229A4011421BD015F09E
:10271800020F18D0236813F0200F06D1236823F086
:102728000A032360012380F82530016C436C03F011
:102738001F02022393404B60002380F82430C36AB1
:10274800F3B1984738BD082202FA03F3194217D0AB
:1027580015F0080F14D0236823F00E032360016CD2
:10276800436C03F01F03012202FA03F34B60C263B8
:1027780080F82520002380F82430436B03B1984764
:1027880038BD00BF002836D13E4B1B6803F4C06338
:10279800B3F5806F26D13B4AD2F8803023F480739A
:1027A800C2F88030136823F4C06343F400731360E5
:1027B800354B1A68322303FB02F3344AA2FB032386
:1027C8009B0C013300E0013B2E4A526912F4806FE2
:1027D80001D0002BF7D12B4B5B6913F4806F4DD0E0
:1027E80003207047274AD2F8803023F48073C2F858
:1027F800803000207047B0F5007F36D1214B1B6830
:1028080003F4C063B3F5806F26D11E4AD2F8803036
:1028180043F48073C2F88030136823F4C06343F430
:1028280000731360184B1A68322303FB02F3174A2C
:10283800A2FB03239B0C013300E0013B114A5269C0
:1028480012F4806F01D0002BF7D10E4B5B6913F4A3
:10285800806F15D0032070470A4AD2F8803043F4BD
:102868008073C2F8803000207047064A136823F44A
:10287800C06343F4806313600020704700207047F2
:1028880000207047007000401801002083DE1B43C1
:10289800074AD36823F4E0631B041B0C000200F40E
:1028A800E060184340F0BF6040F40030D0607047EB
:1028B80000ED00E030B4164BDB68C3F30223C3F12C
:1028C8000704042C28BF04241D1D062D01D9DD1E74
:1028D80000E00025012303FA04F4013C2140A9404B
:1028E800AB40013B1A400A43002808DB1201D2B270
:1028F80000F1604000F5614080F8002305E000F039
:102908000F001201D2B2034B1A5430BC704700BFFB
:1029180000ED00E014ED00E0002808DB420900F0BB
:102928001F00012303FA00F0014B43F8220070470F
:1029380000E100E00138B0F1807F0AD2064B586010
:10294800F021064A82F823100020986007221A60B6
:1029580070470120704700BF10E000E000ED00E084
:10296800002859D010B504460023836290F85D30E2
:1029780013F0FF0F04D1002380F85C3002F02CFE26
:10298800022384F85D302268136823F04003136043
:10299800E268B2F5E06F01D9002001E04FF4805001
:1029A800B2F5706F04D0B2F5E06F01D00023A362D6
:1029B800236B3BB9B2F5E06F02D90223236301E030
:1029C8000123236321686268A3681A4323691A43B1
:1029D80063691343A26902F400721A43E3691A4354
:1029E800236A1A43A36A13430B602168638B03F0BD
:1029F8000403626A1343626B1A43E3681343034395
:102A08004B602268D36923F40063D36100202066F9
:102A1800012384F85D3010BD0120704730B4036A8B
:102A280023F001030362036A4468826922F4803256
:102A380022F073020D682A4323F002038D682B43AA
:102A48001C4DA8420FD005F50065A8420BD005F52E
:102A58004065A84207D005F58065A84203D005F572
:102A68008065A84205D123F00803CD682B4323F0E5
:102A78000403104DA8420FD005F50065A8420BD0FD
:102A880005F54065A84207D005F58065A84203D042
:102A980005F58065A84205D124F440754C692C439E
:102AA8008D692C43446082614A684263036230BC8A
:102AB800704700BF002C014030B4036A23F48073D0
:102AC8000362036A4468C26922F4803222F0730206
:102AD8000D682A4323F400738D6843EA0523184DD3
:102AE800A84203D005F50065A84206D123F4006387
:102AF800CD6843EA052323F48063114DA8420FD023
:102B080005F50065A8420BD005F54065A84207D039
:102B180005F58065A84203D005F58065A84207D170
:102B280024F440544D6944EA05148D6944EA0514B7
:102B38004460C2614A68C263036230BC704700BF28
:102B4800002C014030B4036A23F480530362036A03
:102B58004468C26922F0807222F4E6420D6842EAB3
:102B6800052223F400538D6843EA0533174DA84224
:102B780003D005F50065A84206D123F40043CD68CB
:102B880043EA053323F48043104DA8420FD005F5DE
:102B98000065A8420BD005F54065A84207D005F5A9
:102BA8008065A84203D005F58065A84207D124F4C2
:102BB80040444D6944EA85148D6944EA85144460AB
:102BC800C2614A680264036230BC7047002C01404D
:102BD80030B4036A23F480330362036A4468026DE5
:102BE80022F4803222F070020D682A4323F4003365
:102BF8008D6843EA05430F4DA8420FD005F50065DF
:102C0800A8420BD005F54065A84207D005F58065B8
:102C1800A84203D005F58065A84204D124F4803485
:102C28004D6944EA0524446002654A688264036287
:102C380030BC7047002C014030B4036A23F4801381
:102C48000362036A4468026D22F0807222F4E04253
:102C58000D6842EA052223F400138D6843EA055300
:102C68000F4DA8420FD005F50065A8420BD005F519
:102C78004065A84207D005F58065A84203D005F550
:102C88008065A84204D124F480244D6944EA85244F
:102C9800446002654A68C264036230BC704700BF82
:102CA800002C014010B4036A046A24F00104046291
:102CB800846924F0F00444EA021223F00A03194359
:102CC8008261016210BC704710B4036A23F01003DC
:102CD80003628469036A24F4704444EA023223F0EC
:102CE800A00343EA01118261016210BC704700BF72
:102CF800836823F4401323F07003194341F007015C
:102D080081607047704700BF704700BF704700BFC1
:102D1800704700BF704700BF704700BF10B504463A
:102D280003681A6912F0020F17D0DA6812F0020F5E
:102D380013D06FF002021A610123037703689B69BD
:102D480013F0030F02D0FFF7E3FF04E0FFF7DEFF05
:102D58002046FFF7DFFF0023237723681A6912F064
:102D6800040F19D0DA6812F0040F15D06FF00402BE
:102D78001A610223237723689B6913F4407F03D0E9
:102D88002046FFF7C5FF05E02046FFF7BFFF2046B6
:102D9800FFF7C0FF0023237723681A6912F0080F92
:102DA80019D0DA6812F0080F15D06FF008021A610E
:102DB800042323772368DB6913F0030F03D020462D
:102DC800FFF7A6FF05E02046FFF7A0FF2046FFF724
:102DD800A1FF0023237723681A6912F0100F19D076
:102DE800DA6812F0100F15D06FF010021A6108237C
:102DF80023772368DB6913F4407F03D02046FFF76D
:102E080087FF05E02046FFF781FF2046FFF782FF96
:102E18000023237723681A6912F0010F09D0DA68B2
:102E280012F0010F05D06FF001021A612046FFF77A
:102E38006BFF23681A6912F0800F09D0DA6812F064
:102E4800800F05D06FF080021A61204600F0A8FAC2
:102E580023681A6912F4807F09D0DA6812F0800FAB
:102E680005D06FF480721A61204600F09BFA23683F
:102E78001A6912F0400F09D0DA6812F0400F05D035
:102E88006FF040021A612046FFF746FF23681A696F
:102E980012F0200F09D0DA6812F0200F05D06FF079
:102EA80020021A61204600F079FA23681A6912F4A0
:102EB800801F09D0DA6812F4801F05D06FF48012E1
:102EC8001A61204600F070FA23681A6912F4001F8C
:102ED80009D0DA6812F4001F05D06FF400121A61E5
:102EE800204600F063FA23681A6912F4800F09D0AB
:102EF800DA6812F4800F05D06FF480021A61204658
:102F080000F056FA23681A6912F4000F09D0DA683B
:102F180012F4000F05D06FF400021A61204600F089
:102F280049FA10BD03682C4A90420ED0B0F1804F88
:102F38000BD0A2F59432904207D002F580629042FD
:102F480003D002F59632904203D123F070034A6809
:102F58001343214A90421AD0B0F1804F17D0A2F5FE
:102F68009432904213D002F5806290420FD002F55D
:102F7800963290420BD002F54062904207D002F59B
:102F88008062904203D002F58062904203D123F41C
:102F98004073CA68134323F080034A6913430360EC
:102FA8008B68C3620B6883620B4B98420FD003F5A2
:102FB800006398420BD003F54063984207D003F5AD
:102FC8008063984203D003F58063984201D10B696E
:102FD8000363012343617047002C0140B8B110B569
:102FE800044690F83D3013F0FF0F04D1002380F819
:102FF8003C3002F057FB022384F83D30211D206845
:10300800FFF790FF012384F83D30002010BD012018
:10301800704700BFB8B110B5044690F83D3013F0C2
:10302800FF0F04D1002380F83C30FFF76BFE02232A
:1030380084F83D30211D2068FFF774FF012384F8D0
:103048003D30002010BD0120704700BF30B4036A36
:1030580023F010030362036A4468826922F08072D5
:1030680022F4E6420D6842EA052223F020038D6827
:1030780043EA0513174DA84203D005F50065A84299
:1030880006D123F08003CD6843EA051323F04003FB
:10309800104DA8420FD005F50065A8420BD005F5E4
:1030A8004065A84207D005F58065A84203D005F51C
:1030B8008065A84207D124F440644D6944EA850438
:1030C8008D6944EA8504446082614A6882630362C8
:1030D80030BC7047002C014090F83C30012B34D0B4
:1030E80010B50446012380F83C30022380F83D30B7
:1030F800142A23D8DFE802F00B2222220F222222F0
:1031080013222222172222221B2222221F000068B9
:10311800FFF784FC12E00068FFF798FF0EE00068F4
:10312800FFF7CAFC0AE00068FFF70CFD06E000683C
:10313800FFF74EFD02E00068FFF77EFD012384F8EB
:103148003D30002084F83C0010BD0220704700BFCD
:1031580010B4846824F47F4442EA0323194344EA00
:103168000103836010BC704790F83C30012B7AD083
:1031780010B50446012380F83C30022380F83D3026
:1031880002689068394B034093600B68702B29D014
:1031980010D8302B5CD006D8102B59D0202B57D004
:1031A800002B59D154E0502B34D0602B3CD0402B0D
:1031B80052D143E02E4A93424AD009D8B3F1101FA6
:1031C80046D0103A934243D0B3F5005F16D043E09F
:1031D800284A93423CD01032934239D0303A934235
:1031E8003AD135E0CB684A6889682068FFF7B0FFB4
:1031F8002268936843F0770393602DE0CB684A68B0
:1032080089682068FFF7A4FF2268936843F4804325
:10321800936021E0CA6849682068FFF743FD5021A0
:103228002068FFF765FD17E0CA6849682068FFF75E
:103238004BFD60212068FFF75BFD0DE0CA68496817
:103248002068FFF72FFD40212068FFF751FD03E0BC
:1032580019462068FFF74CFD012384F83D30002013
:1032680084F83C0010BD0220704700BF8800CEFFE4
:10327800300010006000100090F83C30012B29D07D
:1032880030B4012380F83C30022380F83D300268D6
:1032980053689568114CA24203D004F50064A24219
:1032A80003D123F470034C68234323F0007323F005
:1032B80070030C68234325F0800489682143536018
:1032C80003689960012380F83D30002380F83C3082
:1032D800184601E00220704730BC7047002C0140BE
:1032E80090F83C30012B52D010B4012380F83C30C8
:1032F800CB6823F440728B68134323F480624B68D5
:10330800134323F400620B68134323F480520B69C0
:10331800134323F400524B69134323F480420B6B8D
:10332800134323F470238A6943EA024302681A4C60
:10333800A24203D004F50064A24203D123F08053D3
:10334800CC692343144CA24203D004F50064A24282
:1033580017D123F470038C6A43EA045323F0807373
:103368000C6A234323F000744B6A23430A4CA2429D
:1033780003D004F50064A24203D123F00053C96AC4
:103388000B435364002380F83C30184601E00220C8
:10339800704710BC704700BF002C0140704700BF49
:1033A800704700BF704700BF704700BF704700BF3D
:1033B800704700BF704700BF2DE9784B044682680C
:1033C80003691A4343691A43C3691A43436E1A438C
:1033D80001680868A14B034013430B6021684B68E0
:1033E80023F44052E36813434B60A06921689C4B67
:1033F800994201D0236A18438A6822F06E4323F465
:10340800306303438B602168CB6A23F00F02636A41
:103418001343CB622368934A934213D102F558426F
:10342800D2F8882002F00302032A09D8DFE802F064
:1034380002047A06012580E004257EE008257CE068
:1034480010257AE0884A934218D102F5E632D2F87C
:10345800882002F00C020C2A0ED8DFE802F0070DD3
:103468000D0D090D0D0D650D0D0D0B00002564E00A
:10347800042562E0082560E010255EE07B4A93425F
:1034880017D102F5E432D2F8882002F03002102A6F
:1034980009D001D82AB10AE0202A47D0302A04D01E
:1034A80005E0002549E0042547E0082545E010250A
:1034B80043E06F4A934217D102F5E232D2F88820EE
:1034C80002F0C002402A09D001D82AB10AE0802AB5
:1034D8002ED0C02A04D005E000252EE004252CE0DB
:1034E80008252AE0102528E05D4A934222D102F5FA
:1034F800C832D2F8882002F44062B2F5806F0BD04F
:1035080001D83AB10CE0B2F5006F15D0B2F5406FB2
:1035180004D005E0002510E004250EE008250CE0A5
:1035280010250AE0022508E0022506E0022504E04D
:10353800022502E0102500E00225494A934240F0A6
:10354800BD82082D00F2C980DFE805F005C73DC738
:1035580066C7C7C7AB00FEF77BFE636AC3B1012B22
:1035680018D0022B18D0032B18D0042B18D0052BF9
:1035780018D0062B18D0072B18D0082B18D0092BD9
:1035880018D00A2B18D00B2B18D14FF4807316E0E3
:10359800012314E0022312E0042310E006230EE0C6
:1035A80008230CE00A230AE00C2308E0102306E0B5
:1035B800202304E0402302E0802300E00123B0FB45
:1035C800F3F00026DFE0636A002B00F08980012B0E
:1035D80000F08980022B00F08980032B00F089809D
:1035E800042B00F08980052B00F08980062B00F061
:1035F8008980072B00F08980082B00F08980092B2F
:1036080000F089800A2B00F089800B2B40F089801C
:103618004FF224400026B6E0FEF7CEFC636AC3B141
:10362800012B18D0022B25D0032B25D0042B25D015
:10363800052B25D0062B25D0072B25D0082B25D0E8
:10364800092B25D00A2B25D00B2B25D14FF48073BD
:1036580023E0012321E002231FE000BFF369FFCF2D
:10366800008000400038014000440040004800400D
:10367800004C0040042310E006230EE008230CE071
:103688000A230AE00C2308E0102306E0202304E0C4
:10369800402302E0802300E00123B0FBF3F0002682
:1036A80071E0636A002B3FD0012B41D0022B43D03D
:1036B800032B45D0042B47D0052B49D0062B4BD0E4
:1036C800072B4DD0082B4FD0092B51D00A2B53D0A4
:1036D8000B2B55D18020002655E00020012652E012
:1036E800A94800264FE0A94800264CE0A848002633
:1036F80049E0A848002646E0A748002643E0A74836
:10370800002640E0A64800263DE0A64800263AE00C
:10371800A548002637E0A548002634E0A44800263E
:1037280031E0994800262EE04FF4004000262AE0B8
:103738004FF48040002626E04FF40050002622E097
:1037480041F2555000261EE04FF4805000261AE042
:1037580040F6CC40002616E040F6AA20002612E0EB
:103768004FF4006000260EE04FF4806000260AE067
:103778004FF40070002606E04FF48070002602E047
:103788004FF400400026002800F07284626802EBC3
:1037980042039842C0F06384B0EB023F00F26184B8
:1037A800082D00F28081DFE815F009007E015F0036
:1037B8007E01A7007E017E017E012E01FEF748FDF5
:1037C800636ACBB1012B1AD0022B1BD0032B1CD060
:1037D800042B1DD0052B1ED0062B1FD0072B20D065
:1037E800082B21D0092B22D00A2B23D00B2B24D134
:1037F8004FF48072002322E0012200231FE00222FE
:1038080000231CE00422002319E00622002316E00E
:103818000822002313E00A22002310E00C220023D0
:103828000DE0102200230AE02022002307E04022B6
:10383800002304E08022002301E00122002300216C
:10384800FCF712FD4FEA012949EA10694FEA0028FE
:1038580062685008002318EB000B49F1000C584629
:103868006146FCF701FD20E1636AC3B1012B19D061
:10387800022B1AD0032B1BD0042B1DD0052B1ED0D6
:10388800062B1FD0072B21D0082B22D0092B23D0A1
:103898000A2B24D00B2B25D13B48002124E0454896
:1038A800002121E0444800211EE0444800211BE09B
:1038B80031A1D1E9000117E04148002114E0414855
:1038C800002111E02EA1D1E900010DE03E480021C0
:1038D8000AE03E48002107E03D48002104E03D4859
:1038E800002101E03348002155080023401941F127
:1038F8000001FCF7B9FCD8E0FEF75EFB636ACBB1C8
:10390800012B1AD0022B1BD0032B1CD0042B1DD04B
:10391800052B1ED0062B1FD0072B20D0082B21D01B
:10392800092B22D00A2B23D00B2B55D14FF48072B0
:10393800002353E00122002350E0022200234DE03F
:10394800042200234AE00622002347E0082200233D
:1039580044E00A22002341E00C2200233EE010222A
:1039680000233BE02022002338E04022002335E0FA
:103978008022002332E000BF00AAB0280000000027
:1039880000555814000000000024F40000127A00CA
:1039980000093D00AAB0280080841E00006A1800B3
:1039A8005558140040420F0020A1070090D0030092
:1039B80048E80100000024F40000127A0000093DE4
:1039C8000080841E00006A180040420F0020A107F2
:1039D8000090D0030048E801012200230021FCF7F1
:1039E80043FC4FEA012949EA10694FEA0028626856
:1039F8005008002318EB000B49F1000C58466146AB
:103A0800FCF732FC51E0636ACBB1012B1BD0022BCF
:103A18001DD0032B1FD0042B20D0052B22D0062B22
:103A280023D0072B24D0082B26D0092B28D00A2BEB
:103A38002AD00B2B2CD14FF4004000212BE04FF45F
:103A48000000002127E04FF48000002123E04FF41C
:103A5800001000211FE09E4800211CE04FF4801058
:103A6800002118E09B48002115E09B48002112E046
:103A78004FF4002000210EE04FF4802000210AE0DE
:103A88004FF40030002106E04FF48030002102E0BE
:103A98004FF40000002155080023401941F10001AE
:103AA800FCF7E2FB01E001260020A0F540728B4BF9
:103AB8009A4200F2D8822368D860D9E2E369B3F564
:103AC800004F40F07A81082D00F26581DFE815F09B
:103AD8000900480087006301C000630163016301B6
:103AE8002001FEF7B5FB636AC3B1012B18D0022B86
:103AF80018D0032B18D0042B18D0052B18D0062B60
:103B080018D0072B18D0082B18D0092B18D00A2B3F
:103B180018D00B2B18D14FF4807316E0012314E052
:103B2800022312E0042310E006230EE008230CE031
:103B38000A230AE00C2308E0102306E0202304E00F
:103B4800402302E0802300E00123B0FBF3F3616827
:103B58004A0802EB4303B3FBF1F39BB200261CE1D6
:103B6800FEF788FB636AC3B1012B18D0022B18D06B
:103B7800032B18D0042B18D0052B18D0062B18D0DF
:103B8800072B18D0082B18D0092B18D00A2B18D0BF
:103B98000B2B18D14FF4807316E0012314E0022395
:103BA80012E0042310E006230EE008230CE00A23A9
:103BB8000AE00C2308E0102306E0202304E0402359
:103BC80002E0802300E00123B0FBF3F361684A08B8
:103BD80002EB4303B3FBF1F39BB20026DDE0636A1B
:103BE800BBB1012B17D0022B17D0032B17D0042BF6
:103BF80017D0052B17D0062B17D0072B17D0082B5B
:103C080017D0092B17D00A2B17D00B2B17D1344AF2
:103C180016E0344A14E0344A12E0344A10E0344AD8
:103C28000EE0344A0CE0344A0AE0344A08E0344AE8
:103C380006E0344A04E0344A02E0344A00E0294A03
:103C4800636802EB5302B2FBF3F39BB20026A4E0D5
:103C5800FEF7B2F9636AC3B1012B18D0022B18D052
:103C6800032B18D0042B18D0052B18D0062B18D0EE
:103C7800072B18D0082B18D0092B18D00A2B18D0CE
:103C88000B2B18D14FF4807316E0012314E00223A4
:103C980012E0042310E006230EE008230CE00A23B8
:103CA8000AE00C2308E0102306E0202304E0402368
:103CB80002E0802300E00123B0FBF3F361684A08C7
:103CC80002EB4303B3FBF1F39BB2002665E000BFB0
:103CD8000055150000CC0C0000AA0A00FFFC0F00DC
:103CE80048E801000048E8010024F40000127A00C6
:103CF8005461510000093D0000D43000AAB02800EA
:103D080080841E0040420F0020A1070090D00300CD
:103D1800626AC2B1012A36D0022A17D0032A18D003
:103D2800042A19D0052A1AD0062A1BD0072A1CD023
:103D3800082A1DD0092A1ED00A2A1FD00B2A20D1F2
:103D48004FF480731FE04FF480331CE04FF480433E
:103D580019E042F6AA2316E04FF4005313E041F6A7
:103D6800981310E041F254530DE04FF480530AE0E9
:103D78004FF4006307E04FF4806304E04FF40073EE
:103D880001E04FF48033626803EB5203B3FBF2F3B4
:103D98009BB2002601E001260023A3F110014FF693
:103DA800EF72914200F261819AB222F00F02C3F3DE
:103DB800420313432268D3605AE1082D00F244817C
:103DC800DFE815F00900470085004201BF00420105
:103DD80042014201FD00FEF73BFA636AC3B1012BC1
:103DE80018D0022B18D0032B18D0042B18D0052B71
:103DF80018D0062B18D0072B18D0082B18D0092B51
:103E080018D00A2B18D00B2B18D14FF4807316E05A
:103E1800012314E0022312E0042310E006230EE03D
:103E280008230CE00A230AE00C2308E0102306E02C
:103E3800202304E0402302E0802300E00123B0FBBC
:103E4800F3F0636800EB5300B0FBF3F39BB200267A
:103E5800FCE0FEF70FFA636AC3B1012B18D0022BFE
:103E680018D0032B18D0042B18D0052B18D0062BEC
:103E780018D0072B18D0082B18D0092B18D00A2BCC
:103E880018D00B2B18D14FF4807316E0012314E0DF
:103E9800022312E0042310E006230EE008230CE0BE
:103EA8000A230AE00C2308E0102306E0202304E09C
:103EB800402302E0802300E00123B0FBF3F06368B5
:103EC80000EB5300B0FBF3F39BB20026BEE0636A3D
:103ED800C3B1012B18D0022B18D0032B18D0042BF8
:103EE80018D0052B18D0062B18D0072B18D0082B64
:103EF80018D0092B18D00A2B18D00B2B18D14FF239
:103F0800244316E0604B14E0604B12E0604B10E075
:103F1800604B0EE0604B0CE0604B0AE0604B08E041
:103F2800604B06E0604B04E0604B02E0604B00E051
:103F3800554B626803EB5203B3FBF2F39BB20026C6
:103F480084E0FEF739F8636AC3B1012B18D0022B5D
:103F580018D0032B18D0042B18D0052B18D0062BFB
:103F680018D0072B18D0082B18D0092B18D00A2BDB
:103F780018D00B2B18D14FF4807316E0012314E0EE
:103F8800022312E0042310E006230EE008230CE0CD
:103F98000A230AE00C2308E0102306E0202304E0AB
:103FA800402302E0802300E00123B0FBF3F06368C4
:103FB80000EB5300B0FBF3F39BB2002646E0636AC4
:103FC800BBB1012B18D0022B19D0032B1AD0042B0C
:103FD8001BD0052B1CD0062B1DD0072B1ED0082B61
:103FE8001FD0092B20D00A2B21D00B2B22D18023C4
:103FF80022E04FF400431FE04FF480431CE04FF4ED
:10400800005319E041F2555316E04FF4805313E082
:1040180040F6CC4310E040F6AA230DE04FF40063CD
:104028000AE04FF4806307E04FF4007304E04FF4B4
:10403800807301E04FF40043626803EB5203B3FB63
:10404800F2F39BB2002601E001260023A3F1100140
:104058004FF6EF7291420AD82268D36008E0012631
:1040680006E0012604E0012602E0012600E0012620
:104078000123A4F86A30A4F868300023E3662367B4
:104088003046BDE8788B00BF0024F40000127A00A7
:1040980000093D00AAB0280080841E00006A1800AC
:1040A8005558140040420F0020A1070090D003008B
:1040B80048E80100836A13F0010F06D001684B68D5
:1040C80023F40032C36A13434B60836A13F0020F70
:1040D80006D001684B6823F48032036B13434B60AE
:1040E800836A13F0040F06D001684B6823F480221A
:1040F800436B13434B60836A13F0080F06D00168C3
:104108004B6823F40042836B13434B60836A13F0BC
:10411800100F06D001688B6823F48052C36B1343D9
:104128008B60836A13F0200F06D001688B6823F434
:104138000052036C13438B60836A13F0400F11D055
:1041480001684B6823F48012436C13434B60436C43
:10415800B3F5801F06D101684B6823F4C002836C55
:1041680013434B60836A13F0800F06D001684B68D5
:1041780023F40022C36C13434B6070472DE9F041D0
:1041880005460F4616469846069C1EE0B4F1FF3FCA
:104198001BD0FDF74DFCC8EB0000844200D3A4B946
:1041A8002A68136823F4D07313602A68936823F08D
:1041B800010393602023C5F88030C5F884300023BC
:1041C80085F87C300320BDE8F0812B68DB6937EA8D
:1041D80003030CBF01230023B342D7D00020BDE85E
:1041E800F08100BF30B583B004460023C0F88830A2
:1041F800FDF71EFC054623681B6813F0080F0AD05C
:104208006FF07E430093034600224FF400112046CE
:10421800FFF7B4FFC0B923681B6813F0040F0AD076
:104228006FF07E4300932B4600224FF48001204616
:10423800FFF7A4FF50B92023C4F88030C4F88430B5
:10424800002084F87C0002E0032000E0032003B093
:1042580030BD00BF68B310B50446D0F880301BB934
:1042680080F87C3001F090FA2423C4F8803022686A
:10427800136823F0010313602046FFF79DF8012817
:1042880019D0A36A13B12046FFF714FF22685368B8
:1042980023F4904353602268936823F02A039360C1
:1042A8002268136843F0010313602046FFF79AFF62
:1042B80010BD0120704710BD10B485B00446184BDE
:1042C80002AA1868596803C26A4653F8080F596861
:1042D80003C2636E2BB90123A4F86A30A4F86830CE
:1042E8001BE022689368C3F34263916804AA02EB57
:1042F800517111F8082CD20011F8101C92FBF1F240
:10430800A4F86A2004AA134413F8082CD20013F85E
:10431800103C92FBF3F3A4F8683005B010BC70476A
:10432800185D000890F87C30012B18D0012380F824
:104338007C302423C0F8803003681A68196821F09B
:104348000101196022F000520023436601680A60E7
:104358002022C0F8802080F87C3018467047022060
:10436800704700BF38B590F87C30012B1DD004464B
:10437800012380F87C302423C0F8803003681D684E
:104388001A6822F001021A600268936823F06043F9
:1043980019439160FFF790FF23681D602023C4F83C
:1043A8008030002084F87C0038BD022038BD00BF72
:1043B80038B590F87C30012B1DD00446012380F8D5
:1043C8007C302423C0F8803003681D681A6822F006
:1043D80001021A600268936823F0606319439160D0
:1043E800FFF76AFF23681D602023C4F8803000208F
:1043F80084F87C0038BD022038BD00BF98B108B5EC
:104408000346D0F8B40210B10020C3F8B40209B1D1
:10441800C3F8B0121846012380F89C32027001F0EC
:1044280067FA002008BD0220704700BF19B1C0F824
:10443800B412002070470220704700BF08B501F091
:104448009BFA002008BD00BF08B5D0F8B43223B1EC
:104458001B68984718B1022008BD022008BD00203B
:1044680008BD00BF08B5D0F8B4325B689847002093
:1044780008BD00BF38B5044600F52A75284600F087
:1044880039F90123C4F89432B4F8AE32C4F898323A
:1044980094F8A81201F01F03012B08D013B1022BC6
:1044A8000AD00EE02946204600F002FB0EE029461D
:1044B800204600F033FB09E02946204600F05CFB6B
:1044C80004E001F08001204601F072FA002038BDB6
:1044D80038B5044691BB1046D4F89432032B22D148
:1044E800D4F86021D4F864319A420DD9D21AC4F8AC
:1044F8006021934201D992B200E09AB20146204667
:1045080000F086FC002038BDD4F8B4321B692BB10A
:1045180094F89C22032A01D120469847204600F0AF
:104528007FFC002038BD052B15D10025C4F8945216
:104538002946204601F03CFA284638BD0A46D0F8FC
:10454800B4329B694BB190F89C12032907D11146EC
:104558009847002038BD002038BD022038BD022011
:1045680038BD00BF10B50446002950D11046D4F814
:104578009432022B3CD1226A636A9A420DD9D21A2C
:10458800226292B20146204600F02AFC00231A4615
:104598001946204601F040FA31E0E169B1FBF3F237
:1045A80003FB121292B98B4210D8D4F89832994270
:1045B8000CD21146204600F013FC0021C4F89812D2
:1045C8000B460A46204601F027FA18E0D4F8B43220
:1045D800DB682BB194F89C22032A01D12046984726
:1045E8008021204601F0E4F9204600F025FC06E091
:1045F800042B00D01BB98021204601F0D9F994F88A
:10460800A032012B10D1002084F8A00210BD0A4668
:10461800D0F8B4325B694BB190F89C12032907D1EA
:1046280011469847002010BD002010BD022010BD83
:10463800022010BD70B5044640230022114601F047
:10464800A3F90125C4F858514026C4F864613346DB
:1046580000228021204601F097F9A561666284F85E
:104668009C520023C4F894326360C4F8A432D4F88E
:10467800B8322BB1D4F8B4325B6800212046984791
:10468800002070BD01740020704700BF90F89C3274
:1046980080F89D32042380F89C320020704700BFC8
:1046A80090F89C32042B03D190F89D3280F89C320C
:1046B8000020704708B590F89C32032B04D1D0F83D
:1046C800B432DB6903B19847002008BD03460020D7
:1046D80002E00130C0B201331A78002AF9D17047DC
:1046E80008B54B88012B03D1C0F8A43200F098FB21
:1046F80008BD00BF0B7803704B7843708B78CA787D
:1047080003EB022343800B794A7903EB022383806E
:104718008B79CA7903EB0223C380704710B504462E
:10472800802101F045F90021204601F041F910BD32
:1047380030B583B005460C460023ADF806304A88EC
:10474800130A013B0E2B00F2C980DFE803F01821A1
:1047580037C7C7A5B5C7C7C7C7C7C7C70800D0F8F1
:10476800B032DB692BB10DF10601007C98470023BC
:10477800B9E02146FFF7D2FF01230020B3E0D0F8CB
:10478800B0321B680DF10601007C98470023AAE0AF
:10479800037C4BB9D0F8B4329B6A0DF106009847F8
:1047A8000223437000239EE0D0F8B432DB6A0DF197
:1047B8000600984702234370002394E0D2B2052AEA
:1047C80064D8DFE802F0031323334353D0F8B03240
:1047D8005B682BB10DF10601007C9847002382E04D
:1047E8002146FFF79BFF012300207CE0D0F8B03280
:1047F8009B682BB10DF10601007C9847002372E0FD
:104808002146FFF78BFF012300206CE0D0F8B0327F
:10481800DB682BB10DF10601007C9847002362E0AC
:104828002146FFF77BFF012300205CE0D0F8B0327F
:104838001B692BB10DF10601007C9847002352E05B
:104848002146FFF76BFF012300204CE0D0F8B0327F
:104858005B692BB10DF10601007C9847002342E00B
:104868002146FFF75BFF012300203CE0D0F8B0327F
:104878009B692BB10DF10601007C9847002332E0BB
:104888002146FFF74BFF012300202CE02146FFF7CC
:1048980045FF0123002026E0037C3BB9D0F8B43261
:1048A8005B6B0DF10600984700231CE02146FFF7DB
:1048B80035FF0123002016E0037C4BB9D0F8B43251
:1048C8001B6B0DF1060098470723437000230AE08D
:1048D8002146FFF723FF0123002004E02146FFF7CC
:1048E8001DFF0123002093B9BDF8063053B1E288BB
:1048F80042B19A4228BF1A46ADF80620014628461A
:1049080000F060FAE38813B9284600F089FA03B08A
:1049180030BD00BF38B504468B88F3B9CB88E3B9FE
:104928004B887F2B19D803F07F0590F89C32032B16
:1049380002D1FFF7F3FE38BD80F89E52294601F0F8
:104948005BF8204600F06CFA1DB1022384F89C3213
:1049580038BD012384F89C3238BD2046FFF7DEFEBF
:1049680038BD00BF38B504460D468978284B197004
:10497800012903D92946FFF7D1FE38BD90F89C32AA
:10498800022B02D0032B15D039E081B141600323FB
:1049980080F89C32FFF758FD022804D129462046AA
:1049A800FFF7BCFE38BD204600F03AFA38BD00F0EB
:1049B80037FA38BD49B9022380F89C324160FFF7C5
:1049C80051FD204600F02CFA38BD4368994213D0B7
:1049D800D9B2FFF747FD0E4B197861602046FFF703
:1049E80033FD022804D129462046FFF797FE38BD3B
:1049F800204600F015FA38BD00F012FA38BD2946F5
:104A0800FFF78CFE024B19782046FFF72BFD38BDC7
:104A18009C01002008B5CB88012B02D0FFF77EFE51
:104A280008BD90F89C328BB1022B02D9032B08D019
:104A38000CE00146002341F8083F012200F0C2F9CA
:104A480008BD0122011D00F0BDF908BDFFF766FE93
:104A580008BD00BF08B590F89C32013B022B12D864
:104A6800CB88022B02D0FFF759FE08BD0123C36093
:104A7800D0F8A4320BB10323C360022200F10C0169
:104A880000F0A0F908BDFFF749FE08BD08B590F889
:104A98009C32013B022B08D84B88012B07D10023FD
:104AA800C0F8A43200F0BCF908BDFFF737FE08BD16
:104AB80008B50B7803F06003202B03D0402B01D0FE
:104AC8003BBB04E0D0F8B4329B68984723E04B78AE
:104AD800092B1BD8DFE803F011171A141A08051A56
:104AE8000E0BFFF725FE16E0FFF714FF13E0FFF7A4
:104AF80039FF10E0FFF78EFF0DE0FFF7ABFF0AE08C
:104B0800FFF7EEFD07E0FFF7C1FF04E0FFF706FE41
:104B180001E0FFF703FE002008BD00BF38B50546D9
:104B28000C460B7803F06003202B02D0402B00D0FA
:104B3800F3B995F89C32013B022B14D82379012B49
:104B48000CD8D5F8B4329B68214628469847E388A4
:104B580083B978B9284600F063F90BE02146284666
:104B6800FFF7DCFD06E021462846FFF7D7FD01E008
:104B7800FFF7D4FD002038BD38B504468A880B7885
:104B880003F06003202B06D0D0B2402B03D0002BBB
:104B980040F0F58006E0D4F8B4329B682046984788
:104BA800002038BD202B05D1D4F8B4329B682046AC
:104BB800984738BD4B78012B32D0002B5ED0032BA1
:104BC80040F0D88094F89C32022B02D0032B12D0EC
:104BD80021E058B1802809D00146204600F0E8FEBF
:104BE8008021204600F0E4FE002038BD2046FFF773
:104BF80095FD002038BD4B8843B938B1802805D0D1
:104C0800CB881BB90146204600F0D2FE204600F0B2
:104C180007F9002038BD2046FFF780FD002038BD89
:104C280094F89C32022B02D0032B12D021E058B109
:104C3800802809D00146204600F0BAFE802120468F
:104C480000F0B6FE002038BD2046FFF767FD0020C3
:104C580038BD4B88002B40F0978010F07F0F03D0B1
:104C68000146204600F0ACFE204600F0D9F80020AE
:104C780038BD2046FFF752FD002038BD94F89C321D
:104C8800022B02D0032B26D06FE030B1802804D04D
:104C98002046FFF743FD002038BD12F0800F09D0F1
:104CA80000F07F0000EB8000830003F11001214435
:104CB800043108E000F07F0000EB8000830003F57A
:104CC800A8712144043100250D600222204600F01D
:104CD80079F8284638BD52B2002A0CDA00F00F03E2
:104CE80003EB83039D002544AB6993B92046FFF786
:104CF80015FD002038BD00F00F0303EB83039D0072
:104D08002544D5F8583123B92046FFF707FD002080
:104D180038BD002A09DA00F07F0202EB8202930014
:104D280003F110052544043508E000F07F0202EB8A
:104D38008202930003F5A8752544043508B180283C
:104D480002D100232B6009E00146204600F040FE16
:104D580010B101232B6001E000232B6002222946B9
:104D6800204600F02FF8002038BD2046FFF7D6FC7B
:104D7800002038BD2046FFF7D1FC002038BD204672
:104D8800FFF7CCFC002038BD002038BDC8B170B595
:104D98000D4616460446FFF799FC01304000308066
:104DA800287003236B70022307E05A1CD2B2013427
:104DB800E9540233DBB20021A95421780029F4D147
:104DC80070BD704710B513460222C0F89422C36123
:104DD80003620A46002100F017FE002010BD00BF44
:104DE80008B513460A46002100F00EFE002008BD53
:104DF80010B513460322C0F89422C0F85C31C0F8FD
:104E080060310A46002100F007FE002010BD00BFF7
:104E180008B513460A46002100F0FEFD002008BD33
:104E280008B50423C0F8943200231A46194600F046
:104E3800EBFD002008BD00BF08B50523C0F894327B
:104E480000231A46194600F0E7FD002008BD00BF00
:104E580010B5D0F8B842D0F8BC325BB194F8000273
:104E6800FF2807D09B6894F8012221469847FF2322
:104E780084F80032002010BD4323038000487047A7
:104E8800080000204323038000487047D400002016
:104E98004323038000487047900000200A230380C2
:104EA800004870478400002038B50446D0F8B8524E
:104EB80000F0BAFDC5F80C02D4F8B8324BB1D4F8FA
:104EC800BC32DB6805F50371D5F804029847002069
:104ED80038BD022038BD00BF38B5D0F8B822D0F8A8
:104EE800C052EAB101EB8104A3000344DB699BB122
:104EF80005EB4115AD6BB3FBF5F405FB14335BB95A
:104F080001EB8102930003440024DC61234622461E
:104F180000F07AFD204638BD0020C2F8140238BDE2
:104F2800022038BD70B582B005460C46D0F8B8628C
:104F380000238DF80730ADF804300B7813F06002C9
:104F480027D0202A54D1CA88DAB113F0800F0CD0A8
:104F5800D0F8BC329B68314660789847E288314681
:104F68002846FFF72FFF002047E04B7886F80032ED
:104F78008B7986F80132CA883146FFF739FF00205D
:104F88003BE0D0F8BC329B68002248789847002064
:104F980033E04B780A2B10D00B2B1DD023BB90F895
:104FA8009C32032B05D1022201A9FFF70BFF002039
:104FB80023E0FFF7B3FB02201FE090F89C32032B9D
:104FC80006D101220DF10701FFF7FCFE002014E0D5
:104FD800FFF7A4FB022010E090F89C32032B0BD0C3
:104FE800FFF79CFB022008E0FFF798FB022004E093
:104FF800FFF794FB022000E0002002B070BD00BF64
:1050080038B50446812100F0CBFC0025E56201217A
:10501800204600F0C5FCC4F86C518221204600F0FF
:10502800BFFC2564D4F8B8324BB1D4F8BC325B6805
:105038009847D4F8B80200F023FDC4F8B85200200D
:1050480038BD00BF38B50446037C8BB94FF40073F4
:105058000222812100F098FC0125E5624FF40073DB
:1050680002222946204600F08FFCC4F86C510EE05D
:1050780040230222812100F087FC0125E5624023BC
:1050880002222946204600F07FFCC4F86C51082310
:1050980003228221204600F077FC012323644FF489
:1050A800077000F0E9FC0546C4F8B802E8B1D4F886
:1050B800BC321B6898470023C5F81432C5F818326B
:1050C800237C4BB94FF40073D5F804220121204604
:1050D80000F0A2FC002038BD4023D5F804220121AD
:1050E800204600F099FC002038BD012038BD00BFE3
:1050F80019B1C0F8BC12002070470220704700BFE9
:10510800D0F8B832C3F80812C3F81022002070474C
:10511800D0F8B832C3F8041200207047D0F8B8228B
:105128009AB108B5037C43B94FF40073D2F804224E
:10513800012100F071FC002008BD4023D2F80422B0
:10514800012100F069FC002008BD0220704700BF63
:105158004FF00062014B9A60704700BF00ED00E01D
:1051680008B500220D490E48FFF748F908B100F0CC
:10517800D3F90C490A48FFF759F908B100F0CCF9FE
:1051880009490748FFF7B4FF08B100F0C5F904481A
:10519800FFF754F908B100F0BFF908BD1C01002061
:1051A800C40300204C0000207001002070B588B0B6
:1051B800002403940494059406940794204BDA6C15
:1051C80042F02002DA64DA6C02F020020092009ABF
:1051D800DA6C42F00102DA64DA6C02F00102019240
:1051E800019ADA6C42F00202DA64DB6C03F0020323
:1051F8000293029B134D22464FF480712846FBF719
:10520800F1F902230393104B04930126059603A991
:105218004FF09040FBF716F94FF480730393049610
:105228000594069403A92846FBF70CF92246214663
:105238000720FDF73FFB0720FDF76EFB08B070BDA8
:1052480000100240000400480000211000B583B09F
:10525800124B9A6C42F004029A649A6C02F00402AF
:105268000092009A9A6C42F001029A649B6C03F0D7
:1052780001030193019B002211460B20FDF71AFB45
:105288000B20FDF749FB002211460C20FDF712FB0D
:105298000C20FDF741FB03B05DF804FB0010024051
:1052A80008B50E480E4B03604FF482734360002329
:1052B80083604FF4E062C260036143614FF480226F
:1052C80082611822C2610362436283620722C2625A
:1052D800036308234363FDF743FB08BDC8060020AA
:1052E8000030014030B58FB000240A940B940C9420
:1052F8000D940794089409940094019402940394DB
:10530800049405940694144D4FF080432B60A92310
:105318006B60AC60EC602C61AC612846FDF75EFE0A
:105328004FF480530A930AA92846FDF71DFF284623
:10533800FDF770FE0794099407A92846FDF79CFF1E
:105348000094019402940494224669462846FDF785
:10535800C3FE0FB030BD00BF2C07002030B59DB094
:105368000024189419941A941B941594169417945D
:105378000E940F941094119412941394149434224C
:10538800214601A800F0A0FC254D264B2B606C603F
:10539800AC60EC602C616C61AC612846FDF71EFEC8
:1053A8004FF48053189318A92846FDF7DDFE2846C8
:1053B800FDF730FE15941694179415A92846FDF7A5
:1053C8005BFF10230E930F940223109311941294F1
:1053D8001394149422460EA92846FDF77DFE0F94D7
:1053E80004220EA92846FDF777FE0194029403943F
:1053F800049405944FF40053069307940894099471
:105408004FF000730A930B940C940D9401A928464D
:10541800FDF766FF284600F08FF91DB030BD00BFCC
:1054280088060020002C014038B5104C104B236032
:105438004FF4E13363600025A560E56025610C2326
:105448006361A561E56125626562A5622046FEF794
:1054580001FF29462046FEF785FF29462046FEF72C
:10546800A7FF2046FEF75EFF38BD00BF6C0700208F
:105478000044004030B5A5B03822002116A800F03D
:1054880023FC002411941294139414941594442228
:105498002146684600F018FC2046FDF773F92123E1
:1054A80016934FF48033179301231C9302231D9303
:1054B80003251E9506221F9255222092219322939E
:1054C800239316A8FCF7E6FA0F2311931295139469
:1054D80014941594082111A8FCF7B2FD42F20203B6
:1054E800009302940D946846FCF7D6FE25B030BDB3
:1054F80008B5FCF783FAFFF7BDFFFFF757FEFFF784
:10550800A5FEFFF7CDFEFFF729FFFFF7EBFEFFF73C
:105518008BFFFFF725FEFEE7704700BF704700BF0F
:10552800FEE700BFFEE700BFFEE700BFFEE700BFE3
:10553800704700BF704700BF704700BF08B5FCF751
:105548006BFA08BD08B50220FBF754F808BD00BF88
:1055580008B50248FDF7B4F808BD00BFF8070020F9
:1055680008B50248FDF7ACF808BD00BF5808002090
:1055780008B50248FBF73AFB08BD00BFB808002091
:1055880008B50248FDF7CAFB08BD00BF2C0700207C
:1055980000B583B00E4B1A6E42F001021A661A6EFD
:1055A80002F001020092009A9A6D42F080529A65C8
:1055B8009B6D03F080530193019B0520FDF768F96B
:1055C800044A936823F48043936003B05DF804FBB6
:1055D800001002400070004010B588B0002303930B
:1055E80004930593069307930268294B9A424CD17A
:1055F800044603F560431A6E42F480521A661A6E26
:1056080002F480520192019ADA6C42F00102DA64E3
:10561800DB6C03F001030293029BF0230393022344
:1056280004930523079303A94FF09040FAF70AFF64
:105638001848194B03600A23436000238360C36042
:105648008022026143618361C3610362FCF7CCFF7E
:1056580008B1FFF761FF0F4BA3659C620F48104B21
:1056680003600B234360102383600023C360802200
:10567800026143618361C3610362FCF7B5FF08B14E
:10568800FFF74AFF054B63659C6208B010BD00BF79
:1056980000300140F80700200800024058080020A8
:1056A8001C00024000B589B00023039304930593BE
:1056B8000693079303681E4A93421FD11D4B1A6E27
:1056C80042F400621A661A6E02F400620092009AAE
:1056D800DA6C42F00102DA64DB6C03F00103019337
:1056E800019B4FF40073039302230493062307934B
:1056F80003A94FF09040FAF7A5FE15E0B3F1804FEB
:1057080012D103F504339A6D42F001029A659B6D3C
:1057180003F001030293029B002211461C20FDF7AF
:10572800C9F81C20FDF7F8F809B05DF804FB00BFC4
:10573800002C01400010024000B587B000230193FF
:10574800029303930493059302680E4B9A4216D171
:1057580003F56443DA6C42F00102DA64DB6C03F0AF
:1057680001030093009B4FF480730193022302937B
:105778000623059301A94FF09040FAF763FE07B09E
:105788005DF804FB002C014000B589B000230393A9
:1057980004930593069307930268124B9A421ED10D
:1057A80003F5E6339A6D42F400329A659A6D02F475
:1057B80000320192019ADA6C42F00102DA64DB6C81
:1057C80003F001030293029B0C2303930223049327
:1057D8000723079303A94FF09040FAF733FE09B067
:1057E8005DF804FB0044004010B1022802D003E039
:1057F80000207047012070470220704708B5FFF766
:1058080039FE08BD02680E4B9A4217D100B583B025
:1058180003F5DA339A6D42F400029A659B6D03F43E
:1058280000030193019B002211461420FDF742F862
:105838001420FDF771F803B05DF804FB704700BF52
:10584800005C004008B500F50C71D0F87002FEF756
:1058580011FE08BD08B500EB4113D3F83C21D0F880
:105868007002FEF735FE08BD08B500EB4113DA6B90
:10587800D0F87002FEF776FE08BD00BF08B5D0F874
:105888007002FEF717FF08BD10B504468368022BA7
:1058980001D0FFF741FE0121D4F87002FEF7F2FEB5
:1058A800D4F87002FEF7C6FE10BD00BF10B504465E
:1058B800D0F87002FEF7EAFEA36923B1024A136921
:1058C80043F00603136110BD00ED00E010B5044677
:1058D800836933B1054A136923F006031361FFF79F
:1058E8008DFFD4F87002FEF7DBFE10BD00ED00E07E
:1058F80010B504461E48C0F87042C4F8C0021D4BDB
:10590800036008234360022383600361002343612B
:105918008361C3610362FAF779FE08B1FFF7FCFD02
:10592800182300221146D4F8C002FBF7B9FA58230D
:1059380000228021D4F8C002FBF7B2FAC02300226B
:105948008121D4F8C002FBF7ABFA4FF48873002228
:105958000121D4F8C002FBF7A3FA4FF480730022A8
:105968008221D4F8C002FBF79BFA002010BD00BFCB
:10597800B8080020005C004008B5D0F8C002FAF76B
:10598800A9FEFFF731FF08BD10B51C461346224695
:10599800D0F8C002FAF7C8FEFFF726FF10BD00BF17
:1059A80008B5D0F8C002FAF7F7FEFFF71DFF08BDEB
:1059B80008B5D0F8C002FBF705FAFFF715FF08BDD8
:1059C80008B5D0F8C002FBF733FAFFF70DFF08BDA2
:1059D800D0F8C02211F0800F06D001F07F0302EB4F
:1059E800431191F82A00704701F07F0102EB411141
:1059F80091F82A01704700BF08B5D0F8C002FAF73D
:105A08007FFEFFF7F1FE08BD08B5D0F8C002FAF72F
:105A180019FFFFF7E9FE08BD08B5D0F8C002FAF78C
:105A2800E9FEFFF7E1FE08BD08B5D0F8C002FAF7B5
:105A380001FF08BD10B5044611B101290ED010BDF3
:105A4800836933B1FFF7DAFE0A4A136923F00603C4
:105A58001361D4F87002FEF723FE10BDD0F870026F
:105A6800FEF714FEA36923B1024A136943F0060343
:105A7800136110BD00ED00E000487047A001002050
:105A8800704700BF12230B80004870474001002078
:105A980004230B80004870473C01002030B40023E9
:105AA80010E0040F092C03D8303401F8134002E049
:105AB800373401F8134000015C00013400250D550E
:105AC8000133DBB29342ECD330BC704738B50A4B94
